{
  "address": "0xD796664933eF909e0B97F35d0D3264C239bc6422",
  "abi": [
    {
      "inputs": [
        {
          "internalType": "bytes32",
          "name": "serialHash",
          "type": "bytes32"
        }
      ],
      "name": "CannotTransferToZeroAddress",
      "type": "error"
    },
    {
      "inputs": [
        {
          "internalType": "bytes32",
          "name": "serialHash",
          "type": "bytes32"
        },
        {
          "internalType": "address",
          "name": "currentOwner",
          "type": "address"
        },
        {
          "internalType": "address",
          "name": "caller",
          "type": "address"
        }
      ],
      "name": "OnlyOwnerCanTransfer",
      "type": "error"
    },
    {
      "inputs": [
        {
          "internalType": "bytes32",
          "name": "serialHash",
          "type": "bytes32"
        }
      ],
      "name": "VehicleAlreadyRegistered",
      "type": "error"
    },
    {
      "anonymous": false,
      "inputs": [
        {
          "indexed": true,
          "internalType": "bytes32",
          "name": "serialHash",
          "type": "bytes32"
        },
        {
          "indexed": true,
          "internalType": "address",
          "name": "owner",
          "type": "address"
        },
        {
          "indexed": false,
          "internalType": "uint256",
          "name": "odometer",
          "type": "uint256"
        }
      ],
      "name": "VehicleRegistered",
      "type": "event"
    },
    {
      "anonymous": false,
      "inputs": [
        {
          "indexed": true,
          "internalType": "bytes32",
          "name": "serialHash",
          "type": "bytes32"
        },
        {
          "indexed": true,
          "internalType": "address",
          "name": "from",
          "type": "address"
        },
        {
          "indexed": true,
          "internalType": "address",
          "name": "to",
          "type": "address"
        },
        {
          "indexed": false,
          "internalType": "uint256",
          "name": "odometer",
          "type": "uint256"
        }
      ],
      "name": "VehicleTransferred",
      "type": "event"
    },
    {
      "inputs": [
        {
          "internalType": "bytes32",
          "name": "serialHash",
          "type": "bytes32"
        }
      ],
      "name": "getVehicleOwner",
      "outputs": [
        {
          "internalType": "address",
          "name": "",
          "type": "address"
        }
      ],
      "stateMutability": "view",
      "type": "function"
    },
    {
      "inputs": [
        {
          "internalType": "bytes32",
          "name": "serialHash",
          "type": "bytes32"
        },
        {
          "internalType": "uint256",
          "name": "odometer",
          "type": "uint256"
        }
      ],
      "name": "registerVehicle",
      "outputs": [],
      "stateMutability": "nonpayable",
      "type": "function"
    },
    {
      "inputs": [
        {
          "internalType": "bytes32",
          "name": "serialHash",
          "type": "bytes32"
        },
        {
          "internalType": "address",
          "name": "to",
          "type": "address"
        },
        {
          "internalType": "uint256",
          "name": "odometer",
          "type": "uint256"
        }
      ],
      "name": "transferVehicle",
      "outputs": [],
      "stateMutability": "nonpayable",
      "type": "function"
    },
    {
      "inputs": [
        {
          "internalType": "bytes32",
          "name": "",
          "type": "bytes32"
        }
      ],
      "name": "vehicleOwners",
      "outputs": [
        {
          "internalType": "address",
          "name": "",
          "type": "address"
        }
      ],
      "stateMutability": "view",
      "type": "function"
    }
  ],
  "transactionHash": "0xec634135c13c8c3a150a3bddd9f8896ed5679772ccb466d2aa3856f10d73d073",
  "args": [],
  "numDeployments": 1,
  "solcInputHash": "1ac4993ddb122c7cf82150b961a0d0af",
  "bytecode": "0x608060405234801561001057600080fd5b50610341806100206000396000f3fe608060405234801561001057600080fd5b506004361061004c5760003560e01c80632e52e026146100515780633701a93e1461009657806338b572c9146100ab578063fe4df7b0146100be575b600080fd5b61007a61005f36600461028c565b6000908152602081905260409020546001600160a01b031690565b6040516001600160a01b03909116815260200160405180910390f35b6100a96100a43660046102a5565b6100e7565b005b6100a96100b93660046102e9565b6101fa565b61007a6100cc36600461028c565b6000602081905290815260409020546001600160a01b031681565b6000838152602081905260409020546001600160a01b0316806101255760405163e108f76360e01b8152600481018590526024015b60405180910390fd5b6001600160a01b03811633146101665760405163080bbb1b60e21b8152600481018590526001600160a01b038216602482015233604482015260640161011c565b6001600160a01b0383166101905760405163aa3f344b60e01b81526004810185905260240161011c565b6000848152602081815260409182902080546001600160a01b0319166001600160a01b0387169081179091559151848152339291839188917f04e0a5ab49ddd8b70d1e0cfed86d7b1720faef6b955b734fb528349484260b08910160405180910390a45050505050565b6000828152602081905260409020546001600160a01b0316156102335760405163e108f76360e01b81526004810183905260240161011c565b6000828152602081815260409182902080546001600160a01b03191633908117909155915183815284917fef2baf146fb3b912e8cfffae8e43836edf1de29210cf6394930a86f498e161a5910160405180910390a35050565b60006020828403121561029e57600080fd5b5035919050565b6000806000606084860312156102ba57600080fd5b8335925060208401356001600160a01b03811681146102d857600080fd5b929592945050506040919091013590565b600080604083850312156102fc57600080fd5b5050803592602090910135915056fea264697066735822122040195241da4692a557678cb6e13d15d1d15a27f627afa762ae2bb1e27496f56f64736f6c63430008180033",
  "devdoc": {
    "kind": "dev",
    "methods": {
      "getVehicleOwner(bytes32)": {
        "params": {
          "serialHash": "The keccak256 hash of the vehicle's VIN/serial number."
        },
        "returns": {
          "_0": "The address of the current owner."
        }
      },
      "registerVehicle(bytes32,uint256)": {
        "params": {
          "odometer": "The current odometer reading of the vehicle.",
          "serialHash": "The keccak256 hash of the vehicle's VIN/serial number."
        }
      },
      "transferVehicle(bytes32,address,uint256)": {
        "params": {
          "odometer": "The current odometer reading of the vehicle.",
          "serialHash": "The keccak256 hash of the vehicle's VIN/serial number.",
          "to": "The address of the new owner."
        }
      }
    },
    "version": 1
  },
  "userdoc": {
    "kind": "user",
    "methods": {
      "getVehicleOwner(bytes32)": {
        "notice": "Gets the current owner of a vehicle."
      },
      "registerVehicle(bytes32,uint256)": {
        "notice": "Registers a new vehicle, anchoring it on-chain."
      },
      "transferVehicle(bytes32,address,uint256)": {
        "notice": "Transfers ownership of a vehicle to a new address."
      }
    },
    "version": 1
  },
  "storageLayout": {
    "storage": [
      {
        "astId": 21,
        "contract": "contracts/RideRecords.sol:RideRecords",
        "label": "vehicleOwners",
        "offset": 0,
        "slot": "0",
        "type": "t_mapping(t_bytes32,t_address)"
      }
    ],
    "types": {
      "t_address": {
        "encoding": "inplace",
        "label": "address",
        "numberOfBytes": "20"
      },
      "t_bytes32": {
        "encoding": "inplace",
        "label": "bytes32",
        "numberOfBytes": "32"
      },
      "t_mapping(t_bytes32,t_address)": {
        "encoding": "mapping",
        "key": "t_bytes32",
        "label": "mapping(bytes32 => address)",
        "numberOfBytes": "32",
        "value": "t_address"
      }
    }
  }
}